{
  "address": "0x7849aB985dF1EBE3d787020FFFB513c4320c035f",
  "abi": [
    {
      "inputs": [],
      "stateMutability": "nonpayable",
      "type": "constructor"
    },
    {
      "inputs": [
        {
          "internalType": "address",
          "name": "",
          "type": "address"
        }
      ],
      "name": "ZeroAddress",
      "type": "error"
    },
    {
      "anonymous": false,
      "inputs": [
        {
          "indexed": true,
          "internalType": "address",
          "name": "owner",
          "type": "address"
        },
        {
          "indexed": true,
          "internalType": "address",
          "name": "approved",
          "type": "address"
        },
        {
          "indexed": true,
          "internalType": "uint256",
          "name": "tokenId",
          "type": "uint256"
        }
      ],
      "name": "Approval",
      "type": "event"
    },
    {
      "anonymous": false,
      "inputs": [
        {
          "indexed": true,
          "internalType": "address",
          "name": "owner",
          "type": "address"
        },
        {
          "indexed": true,
          "internalType": "address",
          "name": "operator",
          "type": "address"
        },
        {
          "indexed": false,
          "internalType": "bool",
          "name": "approved",
          "type": "bool"
        }
      ],
      "name": "ApprovalForAll",
      "type": "event"
    },
    {
      "anonymous": false,
      "inputs": [
        {
          "indexed": true,
          "internalType": "address",
          "name": "previousOwner",
          "type": "address"
        },
        {
          "indexed": true,
          "internalType": "address",
          "name": "newOwner",
          "type": "address"
        }
      ],
      "name": "OwnershipTransferred",
      "type": "event"
    },
    {
      "anonymous": false,
      "inputs": [
        {
          "indexed": false,
          "internalType": "address",
          "name": "account",
          "type": "address"
        }
      ],
      "name": "Paused",
      "type": "event"
    },
    {
      "anonymous": false,
      "inputs": [
        {
          "indexed": true,
          "internalType": "address",
          "name": "from",
          "type": "address"
        },
        {
          "indexed": true,
          "internalType": "address",
          "name": "to",
          "type": "address"
        },
        {
          "indexed": true,
          "internalType": "uint256",
          "name": "tokenId",
          "type": "uint256"
        }
      ],
      "name": "Transfer",
      "type": "event"
    },
    {
      "anonymous": false,
      "inputs": [
        {
          "indexed": false,
          "internalType": "address",
          "name": "account",
          "type": "address"
        }
      ],
      "name": "Unpaused",
      "type": "event"
    },
    {
      "inputs": [
        {
          "internalType": "address",
          "name": "to",
          "type": "address"
        },
        {
          "internalType": "uint256",
          "name": "tokenId",
          "type": "uint256"
        }
      ],
      "name": "approve",
      "outputs": [],
      "stateMutability": "nonpayable",
      "type": "function"
    },
    {
      "inputs": [
        {
          "internalType": "address",
          "name": "owner",
          "type": "address"
        }
      ],
      "name": "balanceOf",
      "outputs": [
        {
          "internalType": "uint256",
          "name": "",
          "type": "uint256"
        }
      ],
      "stateMutability": "view",
      "type": "function"
    },
    {
      "inputs": [
        {
          "internalType": "uint256",
          "name": "_tokenId",
          "type": "uint256"
        }
      ],
      "name": "burn",
      "outputs": [
        {
          "internalType": "bool",
          "name": "",
          "type": "bool"
        }
      ],
      "stateMutability": "nonpayable",
      "type": "function"
    },
    {
      "inputs": [
        {
          "internalType": "uint256",
          "name": "tokenId",
          "type": "uint256"
        }
      ],
      "name": "getApproved",
      "outputs": [
        {
          "internalType": "address",
          "name": "",
          "type": "address"
        }
      ],
      "stateMutability": "view",
      "type": "function"
    },
    {
      "inputs": [
        {
          "internalType": "address",
          "name": "owner",
          "type": "address"
        },
        {
          "internalType": "address",
          "name": "operator",
          "type": "address"
        }
      ],
      "name": "isApprovedForAll",
      "outputs": [
        {
          "internalType": "bool",
          "name": "",
          "type": "bool"
        }
      ],
      "stateMutability": "view",
      "type": "function"
    },
    {
      "inputs": [
        {
          "internalType": "address",
          "name": "",
          "type": "address"
        }
      ],
      "name": "isMember",
      "outputs": [
        {
          "internalType": "bool",
          "name": "",
          "type": "bool"
        }
      ],
      "stateMutability": "view",
      "type": "function"
    },
    {
      "inputs": [],
      "name": "mint",
      "outputs": [
        {
          "internalType": "bool",
          "name": "",
          "type": "bool"
        }
      ],
      "stateMutability": "payable",
      "type": "function"
    },
    {
      "inputs": [],
      "name": "name",
      "outputs": [
        {
          "internalType": "string",
          "name": "",
          "type": "string"
        }
      ],
      "stateMutability": "view",
      "type": "function"
    },
    {
      "inputs": [
        {
          "internalType": "address",
          "name": "operator",
          "type": "address"
        },
        {
          "internalType": "address",
          "name": "from",
          "type": "address"
        },
        {
          "internalType": "uint256",
          "name": "_tokenId",
          "type": "uint256"
        },
        {
          "internalType": "bytes",
          "name": "data",
          "type": "bytes"
        }
      ],
      "name": "onERC721Received",
      "outputs": [
        {
          "internalType": "bytes4",
          "name": "",
          "type": "bytes4"
        }
      ],
      "stateMutability": "nonpayable",
      "type": "function"
    },
    {
      "inputs": [],
      "name": "owner",
      "outputs": [
        {
          "internalType": "address",
          "name": "",
          "type": "address"
        }
      ],
      "stateMutability": "view",
      "type": "function"
    },
    {
      "inputs": [
        {
          "internalType": "uint256",
          "name": "tokenId",
          "type": "uint256"
        }
      ],
      "name": "ownerOf",
      "outputs": [
        {
          "internalType": "address",
          "name": "",
          "type": "address"
        }
      ],
      "stateMutability": "view",
      "type": "function"
    },
    {
      "inputs": [],
      "name": "pause",
      "outputs": [],
      "stateMutability": "nonpayable",
      "type": "function"
    },
    {
      "inputs": [],
      "name": "paused",
      "outputs": [
        {
          "internalType": "bool",
          "name": "",
          "type": "bool"
        }
      ],
      "stateMutability": "view",
      "type": "function"
    },
    {
      "inputs": [],
      "name": "renounceOwnership",
      "outputs": [],
      "stateMutability": "nonpayable",
      "type": "function"
    },
    {
      "inputs": [
        {
          "internalType": "address",
          "name": "from",
          "type": "address"
        },
        {
          "internalType": "address",
          "name": "to",
          "type": "address"
        },
        {
          "internalType": "uint256",
          "name": "tokenId",
          "type": "uint256"
        }
      ],
      "name": "safeTransferFrom",
      "outputs": [],
      "stateMutability": "nonpayable",
      "type": "function"
    },
    {
      "inputs": [
        {
          "internalType": "address",
          "name": "from",
          "type": "address"
        },
        {
          "internalType": "address",
          "name": "to",
          "type": "address"
        },
        {
          "internalType": "uint256",
          "name": "tokenId",
          "type": "uint256"
        },
        {
          "internalType": "bytes",
          "name": "data",
          "type": "bytes"
        }
      ],
      "name": "safeTransferFrom",
      "outputs": [],
      "stateMutability": "nonpayable",
      "type": "function"
    },
    {
      "inputs": [
        {
          "internalType": "address",
          "name": "operator",
          "type": "address"
        },
        {
          "internalType": "bool",
          "name": "approved",
          "type": "bool"
        }
      ],
      "name": "setApprovalForAll",
      "outputs": [],
      "stateMutability": "nonpayable",
      "type": "function"
    },
    {
      "inputs": [
        {
          "internalType": "bytes4",
          "name": "interfaceId",
          "type": "bytes4"
        }
      ],
      "name": "supportsInterface",
      "outputs": [
        {
          "internalType": "bool",
          "name": "",
          "type": "bool"
        }
      ],
      "stateMutability": "view",
      "type": "function"
    },
    {
      "inputs": [],
      "name": "symbol",
      "outputs": [
        {
          "internalType": "string",
          "name": "",
          "type": "string"
        }
      ],
      "stateMutability": "view",
      "type": "function"
    },
    {
      "inputs": [],
      "name": "tokenId",
      "outputs": [
        {
          "internalType": "uint256",
          "name": "",
          "type": "uint256"
        }
      ],
      "stateMutability": "view",
      "type": "function"
    },
    {
      "inputs": [
        {
          "internalType": "uint256",
          "name": "tokenId",
          "type": "uint256"
        }
      ],
      "name": "tokenURI",
      "outputs": [
        {
          "internalType": "string",
          "name": "",
          "type": "string"
        }
      ],
      "stateMutability": "view",
      "type": "function"
    },
    {
      "inputs": [
        {
          "internalType": "address",
          "name": "from",
          "type": "address"
        },
        {
          "internalType": "address",
          "name": "to",
          "type": "address"
        },
        {
          "internalType": "uint256",
          "name": "tokenId",
          "type": "uint256"
        }
      ],
      "name": "transferFrom",
      "outputs": [],
      "stateMutability": "nonpayable",
      "type": "function"
    },
    {
      "inputs": [
        {
          "internalType": "address",
          "name": "newOwner",
          "type": "address"
        }
      ],
      "name": "transferOwnership",
      "outputs": [],
      "stateMutability": "nonpayable",
      "type": "function"
    },
    {
      "inputs": [],
      "name": "unpause",
      "outputs": [],
      "stateMutability": "nonpayable",
      "type": "function"
    },
    {
      "stateMutability": "payable",
      "type": "receive"
    }
  ],
  "transactionHash": "0x6f7359361d45dfdac1a4762010280845bdc2f4e4aaab2f99aafb6ec7549edf2b",
  "args": [],
  "numDeployments": 1,
  "solcInputHash": "14de9c332f6f95f4455bb79ce0f9ddbc",
  "bytecode": "0x60806040523480156200001157600080fd5b506040518060400160405280600c81526020017f537761704c6162205573657200000000000000000000000000000000000000008152506040518060400160405280600381526020017f534c550000000000000000000000000000000000000000000000000000000000815250620000aa6200009b620000da640100000000026401000000009004565b640100000000620000de810204565b6001620000b8838262000205565b506002620000c7828262000205565b50506007805460ff1916905550620002d8565b3390565b60008054600160a060020a03838116600160a060020a0319831681178455604051919092169283917f8be0079c531659141344cd1fd0a4f28419497f9722a3daafe3b4186f6b6457e09190a35050565b7f4e487b7100000000000000000000000000000000000000000000000000000000600052604160045260246000fd5b6002810460018216806200017257607f821691505b602082108103620001ac577f4e487b7100000000000000000000000000000000000000000000000000000000600052602260045260246000fd5b50919050565b601f82111562000200576000818152602081206020601f86010481016020861015620001db5750805b6020601f860104820191505b81811015620001fc57828155600101620001e7565b5050505b505050565b815167ffffffffffffffff8111156200022257620002226200012e565b6200023a816200023384546200015d565b84620001b2565b602080601f831160018114620002765760008415620002595750858301515b60028086026008870290910a6000190419821617865550620001fc565b600085815260208120601f198616915b82811015620002a75788860151825594840194600190910190840162000286565b5085821015620002c857878501516008601f88160260020a60001904191681555b5050505050600202600101905550565b611e3c80620002e86000396000f3fe60806040526004361061016c576000357c0100000000000000000000000000000000000000000000000000000000900480636352211e116100d3578063a22cb4651161008c578063a22cb465146103c1578063a230c524146103e1578063b88d4fde14610411578063c87b56dd14610431578063e985e9c514610451578063f2fde38b1461047157600080fd5b80636352211e1461032457806370a0823114610344578063715018a6146103645780638456cb59146103795780638da5cb5b1461038e57806395d89b41146103ac57600080fd5b806317d70f7c1161012557806317d70f7c1461027357806323b872dd146102975780633f4ba83a146102b757806342842e0e146102cc57806342966c68146102ec5780635c975abb1461030c57600080fd5b806301ffc9a71461017b57806306fdde03146101b0578063081812fc146101d2578063095ea7b31461020a5780631249c58b1461022c578063150b7a021461023457600080fd5b3661017657600080fd5b600080fd5b34801561018757600080fd5b5061019b6101963660046118bd565b610491565b60405190151581526020015b60405180910390f35b3480156101bc57600080fd5b506101c561052e565b6040516101a7919061192a565b3480156101de57600080fd5b506101f26101ed36600461193d565b6105c0565b604051600160a060020a0390911681526020016101a7565b34801561021657600080fd5b5061022a61022536600461196d565b6105e7565b005b61019b610723565b34801561024057600080fd5b5061025a61024f366004611997565b600095945050505050565b604051600160e060020a031990911681526020016101a7565b34801561027f57600080fd5b5061028960085481565b6040519081526020016101a7565b3480156102a357600080fd5b5061022a6102b2366004611a32565b6108d5565b3480156102c357600080fd5b5061022a610909565b3480156102d857600080fd5b5061022a6102e7366004611a32565b61091b565b3480156102f857600080fd5b5061019b61030736600461193d565b610936565b34801561031857600080fd5b5060075460ff1661019b565b34801561033057600080fd5b506101f261033f36600461193d565b610952565b34801561035057600080fd5b5061028961035f366004611a6e565b6109ba565b34801561037057600080fd5b5061022a610a57565b34801561038557600080fd5b5061022a610a69565b34801561039a57600080fd5b50600054600160a060020a03166101f2565b3480156103b857600080fd5b506101c5610a79565b3480156103cd57600080fd5b5061022a6103dc366004611a89565b610a88565b3480156103ed57600080fd5b5061019b6103fc366004611a6e565b60096020526000908152604090205460ff1681565b34801561041d57600080fd5b5061022a61042c366004611af4565b610a97565b34801561043d57600080fd5b506101c561044c36600461193d565b610ad2565b34801561045d57600080fd5b5061019b61046c366004611bd0565b610b46565b34801561047d57600080fd5b5061022a61048c366004611a6e565b610b74565b6000600160e060020a031982167f80ac58cd0000000000000000000000000000000000000000000000000000000014806104f45750600160e060020a031982167f5b5e139f00000000000000000000000000000000000000000000000000000000145b8061052857507f01ffc9a700000000000000000000000000000000000000000000000000000000600160e060020a03198316145b92915050565b60606001805461053d90611c03565b80601f016020809104026020016040519081016040528092919081815260200182805461056990611c03565b80156105b65780601f1061058b576101008083540402835291602001916105b6565b820191906000526020600020905b81548152906001019060200180831161059957829003601f168201915b5050505050905090565b60006105cb82610c07565b50600090815260056020526040902054600160a060020a031690565b60006105f282610952565b905080600160a060020a031683600160a060020a0316036106835760405160e560020a62461bcd02815260206004820152602160248201527f4552433732313a20617070726f76616c20746f2063757272656e74206f776e6560448201527f720000000000000000000000000000000000000000000000000000000000000060648201526084015b60405180910390fd5b33600160a060020a038216148061069f575061069f8133610b46565b6107145760405160e560020a62461bcd02815260206004820152603e60248201527f4552433732313a20617070726f76652063616c6c6572206973206e6f7420746f60448201527f6b656e206f776e6572206e6f7220617070726f76656420666f7220616c6c0000606482015260840161067a565b61071e8383610c6e565b505050565b6000662386f26fc1000034101561077f5760405160e560020a62461bcd02815260206004820152601260248201527f496e73756666696369656e742076616c75650000000000000000000000000000604482015260640161067a565b3360009081526009602052604090205460ff16156107e25760405160e560020a62461bcd02815260206004820152600e60248201527f416c726561647920612075736572000000000000000000000000000000000000604482015260640161067a565b336000908152600960205260408120805460ff19166001179055600880549161080a83611c85565b909155505060085460008054604051600160a060020a039091169034908381818185875af1925050503d806000811461085f576040519150601f19603f3d011682016040523d82523d6000602084013e610864565b606091505b50509050806108b85760405160e560020a62461bcd02815260206004820152600660248201527f4661696c65640000000000000000000000000000000000000000000000000000604482015260640161067a565b6108c23383610ce9565b6108cc3383610c6e565b60019250505090565b6108df3382610d03565b6108fe5760405160e560020a62461bcd02815260040161067a90611c9e565b61071e838383610d62565b610911610dd7565b610919610e34565b565b61071e83838360405180602001604052806000815250610a97565b6000610940610dd7565b61094982610e86565b5060015b919050565b600081815260036020526040812054600160a060020a0316806105285760405160e560020a62461bcd02815260206004820152601860248201527f4552433732313a20696e76616c696420746f6b656e2049440000000000000000604482015260640161067a565b6000600160a060020a038216610a3b5760405160e560020a62461bcd02815260206004820152602960248201527f4552433732313a2061646472657373207a65726f206973206e6f74206120766160448201527f6c6964206f776e65720000000000000000000000000000000000000000000000606482015260840161067a565b50600160a060020a031660009081526004602052604090205490565b610a5f610dd7565b6109196000610f3a565b610a71610dd7565b610919610f97565b60606002805461053d90611c03565b610a93338383610fd4565b5050565b610aa13383610d03565b610ac05760405160e560020a62461bcd02815260040161067a90611c9e565b610acc848484846110a5565b50505050565b6060610add82610c07565b6000610af460408051602081019091526000815290565b90506000815111610b145760405180602001604052806000815250610b3f565b80610b1e846110db565b604051602001610b2f929190611cfb565b6040516020818303038152906040525b9392505050565b600160a060020a03918216600090815260066020908152604080832093909416825291909152205460ff1690565b610b7c610dd7565b600160a060020a038116610bfb5760405160e560020a62461bcd02815260206004820152602660248201527f4f776e61626c653a206e6577206f776e657220697320746865207a65726f206160448201527f6464726573730000000000000000000000000000000000000000000000000000606482015260840161067a565b610c0481610f3a565b50565b600081815260036020526040902054600160a060020a0316610c045760405160e560020a62461bcd02815260206004820152601860248201527f4552433732313a20696e76616c696420746f6b656e2049440000000000000000604482015260640161067a565b6000818152600560205260409020805473ffffffffffffffffffffffffffffffffffffffff1916600160a060020a0384169081179091558190610cb082610952565b600160a060020a03167f8c5be1e5ebec7d5bd14f71427d1e84f3dd0314c0f7b2291e5b200ac8c7c3b92560405160405180910390a45050565b610a9382826040518060200160405280600081525061117b565b600080610d0f83610952565b905080600160a060020a031684600160a060020a03161480610d365750610d368185610b46565b80610d5a575083600160a060020a0316610d4f846105c0565b600160a060020a0316145b949350505050565b60075460ff1680610d7d5750600054600160a060020a031633145b610dcc5760405160e560020a62461bcd02815260206004820152601460248201527f54616e73666572206e6f7420616c6c6f6f776564000000000000000000000000604482015260640161067a565b61071e8383836111b1565b600054600160a060020a031633146109195760405160e560020a62461bcd02815260206004820181905260248201527f4f776e61626c653a2063616c6c6572206973206e6f7420746865206f776e6572604482015260640161067a565b610e3c61139c565b6007805460ff191690557f5db9ee0a495bf2e6ff9c91a7834c1ba4fdd244a5e8aa4e537bd38aeae4b073aa335b604051600160a060020a03909116815260200160405180910390a1565b6000610e9182610952565b9050610e9f816000846113f1565b610eaa600083610c6e565b600160a060020a0381166000908152600460205260408120805460019290610ed3908490611d2a565b9091555050600082815260036020526040808220805473ffffffffffffffffffffffffffffffffffffffff1916905551839190600160a060020a038416907fddf252ad1be2c89b69c2b068fc378daa952ba7f163c4a11628f55a4df523b3ef908390a45050565b60008054600160a060020a0383811673ffffffffffffffffffffffffffffffffffffffff19831681178455604051919092169283917f8be0079c531659141344cd1fd0a4f28419497f9722a3daafe3b4186f6b6457e09190a35050565b610f9f61146d565b6007805460ff191660011790557f62e78cea01bee320cd4e420270b5ea74000d11b0c9f74754ebdbfc544b05a258610e693390565b81600160a060020a031683600160a060020a0316036110385760405160e560020a62461bcd02815260206004820152601960248201527f4552433732313a20617070726f766520746f2063616c6c657200000000000000604482015260640161067a565b600160a060020a03838116600081815260066020908152604080832094871680845294825291829020805460ff191686151590811790915591519182527f17307eab39ab6107e8899845ad3d59bd9653f200f220920489ca2b5937696c31910160405180910390a3505050565b6110b0848484610d62565b6110bc848484846114c3565b610acc5760405160e560020a62461bcd02815260040161067a90611d3d565b606060006110e8836115f9565b600101905060008167ffffffffffffffff81111561110857611108611ac5565b6040519080825280601f01601f191660200182016040528015611132576020820181803683370190505b5090508181016020015b600019017f3031323334353637383961626364656600000000000000000000000000000000600a86061a8153600a850494508461113c57509392505050565b61118583836116db565b61119260008484846114c3565b61071e5760405160e560020a62461bcd02815260040161067a90611d3d565b82600160a060020a03166111c482610952565b600160a060020a0316146112435760405160e560020a62461bcd02815260206004820152602560248201527f4552433732313a207472616e736665722066726f6d20696e636f72726563742060448201527f6f776e6572000000000000000000000000000000000000000000000000000000606482015260840161067a565b600160a060020a0382166112c15760405160e560020a62461bcd028152602060048201526024808201527f4552433732313a207472616e7366657220746f20746865207a65726f2061646460448201527f7265737300000000000000000000000000000000000000000000000000000000606482015260840161067a565b6112cc8383836113f1565b6112d7600082610c6e565b600160a060020a0383166000908152600460205260408120805460019290611300908490611d2a565b9091555050600160a060020a038216600090815260046020526040812080546001929061132e908490611d9a565b9091555050600081815260036020526040808220805473ffffffffffffffffffffffffffffffffffffffff1916600160a060020a0386811691821790925591518493918716917fddf252ad1be2c89b69c2b068fc378daa952ba7f163c4a11628f55a4df523b3ef91a4505050565b60075460ff166109195760405160e560020a62461bcd02815260206004820152601460248201527f5061757361626c653a206e6f7420706175736564000000000000000000000000604482015260640161067a565b60075460ff161561071e5760405160e560020a62461bcd02815260206004820152602b60248201527f4552433732315061757361626c653a20746f6b656e207472616e73666572207760448201527f68696c6520706175736564000000000000000000000000000000000000000000606482015260840161067a565b60075460ff16156109195760405160e560020a62461bcd02815260206004820152601060248201527f5061757361626c653a2070617573656400000000000000000000000000000000604482015260640161067a565b6000600160a060020a0384163b156115ee576040517f150b7a02000000000000000000000000000000000000000000000000000000008152600160a060020a0385169063150b7a0290611520903390899088908890600401611dad565b6020604051808303816000875af192505050801561155b575060408051601f3d908101601f1916820190925261155891810190611de9565b60015b6115bb573d808015611589576040519150601f19603f3d011682016040523d82523d6000602084013e61158e565b606091505b5080516000036115b35760405160e560020a62461bcd02815260040161067a90611d3d565b805181602001fd5b600160e060020a0319167f150b7a0200000000000000000000000000000000000000000000000000000000149050610d5a565b506001949350505050565b6000807a184f03e93ff9f4daa797ed6e38ed64bf6a1f0100000000000000008310611642577a184f03e93ff9f4daa797ed6e38ed64bf6a1f010000000000000000830492506040015b6d04ee2d6d415b85acef8100000000831061166e576d04ee2d6d415b85acef8100000000830492506020015b662386f26fc10000831061168c57662386f26fc10000830492506010015b6305f5e10083106116a4576305f5e100830492506008015b61271083106116b857612710830492506004015b606483106116ca576064830492506002015b600a83106105285760010192915050565b600160a060020a0382166117345760405160e560020a62461bcd02815260206004820181905260248201527f4552433732313a206d696e7420746f20746865207a65726f2061646472657373604482015260640161067a565b600081815260036020526040902054600160a060020a03161561179c5760405160e560020a62461bcd02815260206004820152601c60248201527f4552433732313a20746f6b656e20616c7265616479206d696e74656400000000604482015260640161067a565b600160a060020a0382166000908152600460205260409020546001036118075760405160e560020a62461bcd02815260206004820152601060248201527f4d756c7469706c6520617474656d707400000000000000000000000000000000604482015260640161067a565b611813600083836113f1565b600160a060020a038216600090815260046020526040812080546001929061183c908490611d9a565b9091555050600081815260036020526040808220805473ffffffffffffffffffffffffffffffffffffffff1916600160a060020a03861690811790915590518392907fddf252ad1be2c89b69c2b068fc378daa952ba7f163c4a11628f55a4df523b3ef908290a45050565b600160e060020a031981168114610c0457600080fd5b6000602082840312156118cf57600080fd5b8135610b3f816118a7565b60005b838110156118f55781810151838201526020016118dd565b50506000910152565b600081518084526119168160208601602086016118da565b601f01601f19169290920160200192915050565b602081526000610b3f60208301846118fe565b60006020828403121561194f57600080fd5b5035919050565b8035600160a060020a038116811461094d57600080fd5b6000806040838503121561198057600080fd5b61198983611956565b946020939093013593505050565b6000806000806000608086880312156119af57600080fd5b6119b886611956565b94506119c660208701611956565b935060408601359250606086013567ffffffffffffffff808211156119ea57600080fd5b818801915088601f8301126119fe57600080fd5b813581811115611a0d57600080fd5b896020828501011115611a1f57600080fd5b9699959850939650602001949392505050565b600080600060608486031215611a4757600080fd5b611a5084611956565b9250611a5e60208501611956565b9150604084013590509250925092565b600060208284031215611a8057600080fd5b610b3f82611956565b60008060408385031215611a9c57600080fd5b611aa583611956565b915060208301358015158114611aba57600080fd5b809150509250929050565b7f4e487b7100000000000000000000000000000000000000000000000000000000600052604160045260246000fd5b60008060008060808587031215611b0a57600080fd5b611b1385611956565b9350611b2160208601611956565b925060408501359150606085013567ffffffffffffffff80821115611b4557600080fd5b818701915087601f830112611b5957600080fd5b813581811115611b6b57611b6b611ac5565b604051601f8201601f19908116603f01168101908382118183101715611b9357611b93611ac5565b816040528281528a6020848701011115611bac57600080fd5b82602086016020830137600060208483010152809550505050505092959194509250565b60008060408385031215611be357600080fd5b611bec83611956565b9150611bfa60208401611956565b90509250929050565b600281046001821680611c1757607f821691505b602082108103611c50577f4e487b7100000000000000000000000000000000000000000000000000000000600052602260045260246000fd5b50919050565b7f4e487b7100000000000000000000000000000000000000000000000000000000600052601160045260246000fd5b600060018201611c9757611c97611c56565b5060010190565b6020808252602e908201527f4552433732313a2063616c6c6572206973206e6f7420746f6b656e206f776e6560408201527f72206e6f7220617070726f766564000000000000000000000000000000000000606082015260800190565b60008351611d0d8184602088016118da565b835190830190611d218183602088016118da565b01949350505050565b8181038181111561052857610528611c56565b60208082526032908201527f4552433732313a207472616e7366657220746f206e6f6e20455243373231526560408201527f63656976657220696d706c656d656e7465720000000000000000000000000000606082015260800190565b8082018082111561052857610528611c56565b6000600160a060020a03808716835280861660208401525083604083015260806060830152611ddf60808301846118fe565b9695505050505050565b600060208284031215611dfb57600080fd5b8151610b3f816118a756fea2646970667358221220386fc1ecac785f059c3d0bf2e76f7ce0b46f36731a622f9884cb6add3af8450764736f6c63430008110033",
  "devdoc": {
    "kind": "dev",
    "methods": {
      "approve(address,uint256)": {
        "details": "See {IERC721-approve}."
      },
      "balanceOf(address)": {
        "details": "See {IERC721-balanceOf}."
      },
      "burn(uint256)": {
        "details": "Burns 'tokenId' Note - Owner's privilege"
      },
      "getApproved(uint256)": {
        "details": "See {IERC721-getApproved}."
      },
      "isApprovedForAll(address,address)": {
        "details": "See {IERC721-isApprovedForAll}."
      },
      "name()": {
        "details": "See {IERC721Metadata-name}."
      },
      "owner()": {
        "details": "Returns the address of the current owner."
      },
      "ownerOf(uint256)": {
        "details": "See {IERC721-ownerOf}."
      },
      "pause()": {
        "details": "Halts contract execution "
      },
      "paused()": {
        "details": "Returns true if the contract is paused, and false otherwise."
      },
      "renounceOwnership()": {
        "details": "Leaves the contract without owner. It will not be possible to call `onlyOwner` functions anymore. Can only be called by the current owner. NOTE: Renouncing ownership will leave the contract without an owner, thereby removing any functionality that is only available to the owner."
      },
      "safeTransferFrom(address,address,uint256)": {
        "details": "See {IERC721-safeTransferFrom}."
      },
      "safeTransferFrom(address,address,uint256,bytes)": {
        "details": "See {IERC721-safeTransferFrom}."
      },
      "setApprovalForAll(address,bool)": {
        "details": "See {IERC721-setApprovalForAll}."
      },
      "supportsInterface(bytes4)": {
        "details": "See {IERC165-supportsInterface}."
      },
      "symbol()": {
        "details": "See {IERC721Metadata-symbol}."
      },
      "tokenURI(uint256)": {
        "details": "See {IERC721Metadata-tokenURI}."
      },
      "transferFrom(address,address,uint256)": {
        "details": "See {IERC721-transferFrom}."
      },
      "transferOwnership(address)": {
        "details": "Transfers ownership of the contract to a new account (`newOwner`). Can only be called by the current owner."
      },
      "unpause()": {
        "details": "Continues contract execution "
      }
    },
    "version": 1
  },
  "userdoc": {
    "kind": "user",
    "methods": {
      "mint()": {
        "notice": "Mint Membership NFT Owner's privilege. o 'TokenId' must not have been minted before now. o No user can have more than one membership NFT."
      }
    },
    "version": 1
  },
  "storageLayout": {
    "storage": [
      {
        "astId": 7,
        "contract": "contracts/erc721/Membership.sol:Membership",
        "label": "_owner",
        "offset": 0,
        "slot": "0",
        "type": "t_address"
      },
      {
        "astId": 1840,
        "contract": "contracts/erc721/Membership.sol:Membership",
        "label": "_name",
        "offset": 0,
        "slot": "1",
        "type": "t_string_storage"
      },
      {
        "astId": 1842,
        "contract": "contracts/erc721/Membership.sol:Membership",
        "label": "_symbol",
        "offset": 0,
        "slot": "2",
        "type": "t_string_storage"
      },
      {
        "astId": 1846,
        "contract": "contracts/erc721/Membership.sol:Membership",
        "label": "_owners",
        "offset": 0,
        "slot": "3",
        "type": "t_mapping(t_uint256,t_address)"
      },
      {
        "astId": 1850,
        "contract": "contracts/erc721/Membership.sol:Membership",
        "label": "_balances",
        "offset": 0,
        "slot": "4",
        "type": "t_mapping(t_address,t_uint256)"
      },
      {
        "astId": 1854,
        "contract": "contracts/erc721/Membership.sol:Membership",
        "label": "_tokenApprovals",
        "offset": 0,
        "slot": "5",
        "type": "t_mapping(t_uint256,t_address)"
      },
      {
        "astId": 1860,
        "contract": "contracts/erc721/Membership.sol:Membership",
        "label": "_operatorApprovals",
        "offset": 0,
        "slot": "6",
        "type": "t_mapping(t_address,t_mapping(t_address,t_bool))"
      },
      {
        "astId": 139,
        "contract": "contracts/erc721/Membership.sol:Membership",
        "label": "_paused",
        "offset": 0,
        "slot": "7",
        "type": "t_bool"
      },
      {
        "astId": 2742,
        "contract": "contracts/erc721/Membership.sol:Membership",
        "label": "tokenId",
        "offset": 0,
        "slot": "8",
        "type": "t_uint256"
      },
      {
        "astId": 2746,
        "contract": "contracts/erc721/Membership.sol:Membership",
        "label": "isMember",
        "offset": 0,
        "slot": "9",
        "type": "t_mapping(t_address,t_bool)"
      }
    ],
    "types": {
      "t_address": {
        "encoding": "inplace",
        "label": "address",
        "numberOfBytes": "20"
      },
      "t_bool": {
        "encoding": "inplace",
        "label": "bool",
        "numberOfBytes": "1"
      },
      "t_mapping(t_address,t_bool)": {
        "encoding": "mapping",
        "key": "t_address",
        "label": "mapping(address => bool)",
        "numberOfBytes": "32",
        "value": "t_bool"
      },
      "t_mapping(t_address,t_mapping(t_address,t_bool))": {
        "encoding": "mapping",
        "key": "t_address",
        "label": "mapping(address => mapping(address => bool))",
        "numberOfBytes": "32",
        "value": "t_mapping(t_address,t_bool)"
      },
      "t_mapping(t_address,t_uint256)": {
        "encoding": "mapping",
        "key": "t_address",
        "label": "mapping(address => uint256)",
        "numberOfBytes": "32",
        "value": "t_uint256"
      },
      "t_mapping(t_uint256,t_address)": {
        "encoding": "mapping",
        "key": "t_uint256",
        "label": "mapping(uint256 => address)",
        "numberOfBytes": "32",
        "value": "t_address"
      },
      "t_string_storage": {
        "encoding": "bytes",
        "label": "string",
        "numberOfBytes": "32"
      },
      "t_uint256": {
        "encoding": "inplace",
        "label": "uint256",
        "numberOfBytes": "32"
      }
    }
  }
}